:020000042001D9
:100000009711FF5F938181C9970200009382024399
:100010007390523093020000638402007350107C8E
:100020001701FFDF130101FE9700FFDF938080FDC2
:10003000638300008290732540F1814501460D20C5
:100040009700FFDF938000FC63830000829097029B
:1000500000009382C2007390523003230000F5BF6A
:1000600006849711FF5F938161C3138181CC814224
:10007000130300406385A2001A918502E5BF137146
:1000800001FF930200006319550897320000938224
:1000900022F51703FF5F1303E3F69703FF5F9383D4
:1000A0002343638C6200635A730003A5020091022C
:1000B0002320A3001103E34A73FE973200009382CA
:1000C00022F21703FF5F1303E3F39703FF5F9383AA
:1000D00063F3638C6200635A730003A5020091020C
:1000E0002320A3001103E34A73FE1703FF5F1303EA
:1000F000233E9383818C63577300232003001103F5
:10010000E34D73FE11C20296172500001305452327
:10011000EF20C01FEF202026EF20601EF3271030B5
:100120003707010013078702F98F89CBF3270030C7
:100130000967D98F739007307350300005459735A4
:1001400000009385E5E7173600001306A6E7312087
:10015000EF20601CA28082808280411106C2F322BF
:1001600040F1130300006385620073005010F5BF77
:08017000A928924041018280A0
:100180009707FFDF938707E899C717250000130536
:10019000251B6F20A0178280011106CE22CC0010F3
:1001A0002326A4FE2324B4FE83A7418C13871700C3
:1001B00023A2E18CC165FD150146032584FE612261
:1001C0000100F240624405618280397106DE22DC62
:1001D0008000B124AA873E85192C2326A4FE8327FC
:1001E000C4FE99E3854709A2814701482320F4FE14
:1001F000232204FF232CF4FC232E04FD0325C4FE3C
:10020000CD282320A4FE2322B4FE0325C4FE3922D8
:10021000232CA4FC232EB4FC832704FE032744FED6
:10022000D98F99C7832784FD0327C4FDD98F99E30C
:1002300089475DA80325C4FE412A232AA4FC8327FD
:1002400044FD99E38D474DA0032544FDED2A032588
:10025000C4FE2D222328A4FC832704FD99E39147A3
:1002600061A0032504FDC5220325C4FE1D2A232603
:10027000A4FC8326C4FEB7070120138687198325B3
:10028000C4FC032504FDCD222324A4FC832784FC85
:1002900063D70700832784FCB307F040B1A023A2F3
:1002A000018C814501460325C4FE71288325C4FCC9
:1002B000032504FDCD2A2A87FD576314F7009547CF
:1002C00025A08145032544FDF92A2A87FD5763149B
:1002D000F700994711A803A7418C85476305F700EC
:1002E0009307300611A081473E85F2506254216188
:1002F0008280011106CE22CC00102326A4FE832783
:10030000C4FE9C439C430325C4FE8297AA872E8883
:100310003E85C285F240624405618280011106CEAD
:1003200022CC00102326A4FE8327C4FE9C43DC437A
:100330000325C4FE8297AA872E883E85C285F24097
:10034000624405618280011106CE22CC0010232672
:10035000A4FE2320B4FE2322C4FE8327C4FE9C43B4
:10036000DC47832504FE032644FE0325C4FE829752
:10037000AA873E85F240624405618280011106CE63
:1003800022CC00102326A4FE8327C4FE9C439C4B52
:100390000325C4FE8297AA873E85F2406244056128
:1003A0008280011106CE22CC00102326A4FE8327D2
:1003B000C4FE9C43DC4B0325C4FE8297AA873E857E
:1003C000F240624405618280011106CE22CC001009
:1003D0002326A4FE8327C4FE9C43DC570325C4FECA
:1003E0008297AA873E85F2406244056182800111AE
:1003F00022CE00102326A4FE8327C4FE634CF00007
:10040000B70700800327C4FE0A0793878749BA9776
:100410009C4311A081473E85724405618280011191
:1004200022CE0010F32740F12326F4FE8327C4FEDA
:100430003E85724405618280F32220347323103498
:10044000F3233034D5BF011106CE22CC0010232671
:10045000A4FE8327C4FE9C439C430325C4FE8297CD
:10046000F240624405618280011106CE22CC001068
:100470002326A4FE2324B4FE2322C4FE2320D4FE7C
:100480008327C4FE9C43DC43832604FE032644FEEC
:10049000832584FE0325C4FE8297AA873E85F24009
:1004A000624405618280011106CE22CC0010232611
:1004B000A4FE2324B4FE8327C4FE9C439C478325CB
:1004C00084FE0325C4FE8297AA873E85F2406244DB
:1004D00005618280011122CE00102326A4FE03278D
:1004E000C4FEB70700809387C7496315F700B707B5
:1004F000000211A081473E8572440561828001118E
:1005000022CE00102326A4FE0327C4FEB7070080D6
:100510009387C7496314F700894711A081473E8537
:10052000724405618280011122CE00102326A4FEB0
:100530002324B4FE832784FE91E7B70700809387C6
:10054000070421A8032784FE85476317F700B70730
:1005500000809387070411A081473E85724405619E
:100560008280011122CE00102326A4FE2324B4FE93
:10057000832784FE99E38D4709A8032784FE8547D6
:100580006314F7009D4711A081473E8572440561C1
:1005900082805D7186C6A2C4CAC2CEC052DE56DC5D
:1005A0005ADA5ED862D666D48008232EA4FA83274E
:1005B000C4FB3E8505372326A4FC0327C4FCB16792
:1005C000F117BA979C432324F4FC0327C4FCB167BA
:1005D000E117BA979C432322F4FC0327C4FCB167BC
:1005E000F117BA979C43032784FCE318F7FC832791
:1005F00084FC3E8C814C93190C000149832744FCF8
:100600003E8A814A336B4901B3EB5901DA875E8830
:100610003E85C285B640264416498649725AE25A3A
:10062000525BC25B325CA25C61618280797106D6EA
:1006300022D44AD24ED00018232EA4FC232CB4FC82
:100640002328C4FC232AD4FC8327C4FD2326F4FEDC
:100650008327C4FE3E85BD3D2324A4FE832784FD5D
:100660008E073E87832784FE3E9791679107BA974E
:100670003E87FD571CC3832784FD8E073E87832753
:1006800084FE3E979167BA973E87832704FD1CC37B
:10069000832744FD13D907008149832784FD8E07F2
:1006A0003E87832784FE3E9791679107BA974A87D2
:1006B00098C381473E85B2502254125982594561F0
:1006C0008280011106CE22CC0010232604FEF327DF
:1006D00040F12326F4FE0325C4FE113B2324A4FE8F
:1006E000032584FED531AA873E85F2406244056128
:1006F0008280397106DE22DC80002326A4FC0325DB
:10070000C4FCF53B2324A4FE8327C4FC2322F4FE6F
:10071000832744FEDC43A9EF232604FE81A0832522
:10072000C4FE0325C4FC01352320A4FE8325C4FE9A
:100730000325C4FC3D35232EA4FC832704FE9C43E3
:10074000DC438326C4FC01468325C4FD032504FE47
:1007500082978327C4FE85072326F4FE0327C4FE61
:10076000832784FEE34DF7FA832744FE0547D8C369
:100770000100F250625421618280397106DE22DC70
:1007800080002326A4FC2324B4FC2322C4FC2320C1
:10079000D4FCFD572326F4FE232404FE1D3723201A
:1007A000A4FE0325C4FCA13B232EA4FC232204FEAB
:1007B00091A0832544FE0325C4FC6533232CA4FCAF
:1007C000832544FE0325C4FCB93B2324A4FE032750
:1007D00004FE832784FE6318F700032784FC832725
:1007E00084FD6300F702232404FE832744FE85076B
:1007F0002322F4FE032744FE8327C4FDE34BF7FACC
:1008000011A00100832784FE85C3832784FE9C43B7
:10081000DC43832604FC032644FC832584FC032557
:1008200084FE82972326A4FE8327C4FE3E85F250D1
:10083000625421618280397106DE22DC8000232629
:10084000A4FC2324B4FCFD572322F4FE832784FC5C
:10085000C9C7232604FEB5352320A4FE0325C4FC06
:100860007939232EA4FC232404FE91A0832584FE41
:100870000325C4FCFD31232CA4FC832584FE032521
:10088000C4FC55312326A4FE032704FE8327C4FE9F
:100890006318F700032784FC832784FD6300F702B5
:1008A000232604FE832784FE85072324F4FE0327E2
:1008B00084FE8327C4FDE34BF7FA11A001008327D0
:1008C000C4FE81CF8327C4FE9C439C47832584FCC0
:1008D0000325C4FE82972322A4FE01003E85F25028
:1008E000625421618280397106DE22DC8000232679
:1008F000A4FC2324B4FCFD572322F4FE832784FCAC
:10090000C9C7232604FE753B2320A4FE0325C4FC8F
:10091000FD36232EA4FC232404FE91A0832584FE0F
:100920000325C4FC3D39232CA4FC832584FE032528
:10093000C4FCD53E2326A4FE032704FE8327C4FE61
:100940006318F700032784FC832784FD6300F70204
:10095000232604FE832784FE85072324F4FE032731
:1009600084FE8327C4FDE34BF7FA11A0010083271F
:10097000C4FE81CF8327C4FE9C43DC47832584FCCF
:100980000325C4FE82972322A4FE01003E85F25077
:10099000625421618280797106D622D40018232EF8
:1009A000A4FC232CB4FC232AC4FCFD572326F4FE0C
:1009B0008327C4FD2324F4FE0325C4FD213E232206
:1009C000A4FE032784FD89476308F704032784FDF9
:1009D000894763C8E700032784FD8547630EF70056
:1009E000E9A8032784FD8D47630CF704032784FDE2
:1009F00091476308F708D1A0832744FDC5CB0325A1
:100A000084FE413EAA872E88032744FD1CC323226F
:100A10000701232604FE59A8832744FDD1CB832751
:100A200044FD9C432320F4FE832704FE8A073E876F
:100A3000832744FEBA9723A00700232604FE8DA82F
:100A4000832744FDA5CB832744FD9C432320F4FE4C
:100A5000832704FE8A073E87832744FEBA973E8792
:100A600085471CC30F008004832704FE8A073E8746
:100A7000832744FEBA979C432326F4FE232604FED4
:100A800015A8232604FE832744FD9DC7832744FD24
:100A90009C432320F4FE832704FE8A073E87832796
:100AA00044FEBA979C432326F4FE39A0010031A0EE
:100AB000010021A0010011A001008327C4FE3E8592
:100AC000B250225445618280011122CE00102326AB
:100AD000A4FE0327C4FE9387C1806314F7008147F7
:100AE00011A0FD573E85724405618280011122CE1E
:100AF00000102326A4FE0327C4FE9387C18063173A
:100B0000F700B7470F009387072411A081473E8560
:100B1000724405618280011122CE00102326A4FEBA
:100B20000327C4FE9387C1806317F700B7070080CF
:100B30009387070411A081473E8572440561828036
:100B4000011122CE00102326A4FE8327C4FE634C8D
:100B5000F000B70700800327C4FE0A079387874980
:100B6000BA979C4311A081473E85724405618280FB
:100B7000011122CE0010F32740F12326F4FE832733
:100B8000C4FE3E85724405618280011122CE0010B0
:100B9000A147F3A707302326F4FE01007244056144
:100BA0008280011122CE0010A147F3B7073023261F
:100BB000F4FE0100724405618280011122CE001012
:100BC000A147F3A747302326F4FE010072440561D4
:100BD0008280011122CE0010A147F3B747302326AF
:100BE000F4FE0100724405618280011122CE0010E2
:100BF00093070008F3A747302326F4FE0100724450
:100C000005618280011122CE001093070008F3B71E
:100C100047302326F4FE01007244056182800111F1
:100C200022CE0010856793870780F3A747302326DD
:100C3000F4FE0100724405618280011122CE001091
:100C4000856793870780F3B747302326F4FE0100BA
:100C5000724405618280797122D60018232EA4FC8B
:100C60008327C4FD0547B317F7002326F4FE832727
:100C7000C4FEF3A747302324F4FE0100325445613B
:100C80008280797122D60018232EA4FC8327C4FD0C
:100C90000547B317F7002326F4FE8327C4FEF3B7F6
:100CA00047302324F4FE0100325445618280011153
:100CB00006CE22CC00102326A4FE2324B4FE130566
:100CC0004006EF10C058011106CE22CC001023269A
:100CD000A4FE2324B4FE1305800CEF104057797155
:100CE00006D622D40018232EA4FC232CB4FC4935AC
:100CF0002A87B70700800A0793878749BA979C43DA
:100D00002326F4FEF32720342324F4FE8327C4FE95
:100D100095C70325C4FE01352322A4FE832784FE44
:100D200093F7F73F032744FE9387070E8A07BA9786
:100D30009C478325C4FD0325C4FE82970100B25061
:100D4000225445618280797106D622D40018232E60
:100D5000A4FC232CB4FC293DAA873E85D533232649
:100D6000A4FE0325C4FEEF0090022320A4FE23224C
:100D7000B4FE832704FE032844FEA9450146B3863A
:100D8000B70036853335F5003307C800B307E500F3
:100D90003E87B6873A88BE8542860325C4FEEF00AB
:100DA000F0050100B250225445618280000000002D
:100DB0000000000000000000000000000000000033
:100DC0000000000000000000000000000000000023
:100DD0000000000000000000000000000000000013
:100DE0000000000000000000000000000000000003
:100DF00000000000000000000000000000000000F3
:100E0000197186DE96DC9ADA9ED8A2D6AAD4AED222
:100E1000B2D0B6CEBACCBECAC2C8C6C6F2C4F6C23A
:100E2000FAC07EDE0001A9332A87B70700800A07CF
:100E300093878749BA979C432326F4FAF3272034F3
:100E40002324F4FAF32710342322F4FAF32730345E
:100E50002320F4FAF3275030232EF4F88327C4FA22
:100E6000F9C30325C4FA4539232CA4F8832784FA4F
:100E700093F7F73F232AF4F8832784FA63D7070808
:100E8000032744F9BD4763D7E7008327C4F993F7E5
:100E9000F7039DEF832684F9032744F9BA87860771
:100EA000BA978E07B69783A787092326F4F8832677
:100EB00084F9032744F9BA878607BA978E07B6974D
:100EC00083A707098325C4F8032544F98297A1A8BD
:100ED0008327C4F913F7F70389476316F704F32749
:100EE00070302328F4F8832784F983A7C70D2326BD
:100EF000F4F8832704F92324F4F8832784F883255E
:100F0000C4F8032544F9829739A8032784F9832775
:100F100044F99387070E8A07BA979C47832544F9BB
:100F20000325C4FA8297F650E6525653C6533654F8
:100F3000265596550656F6466647D6474648B6485D
:100F4000264E964E064FF25F096173002030000076
:100F50000000000000000000000000000000000091
:100F60000000000000000000000000000000000081
:100F7000000000000000797122D60018232EA4FC86
:100F8000232CB4FCF32750302326F4FE8327C4FE21
:100F900093F707FC2326F4FE832784FD2324F4FE25
:100FA0000327C4FD8547630AF7048327C4FDA9CF3F
:100FB0000327C4FD89476308F7000327C4FD8D4755
:100FC0006300F70281A8832784FE93E727007390CC
:100FD00077308327C4FE93E72700739057301DA80E
:100FE000832784FE93E73700739077308327C4FE0E
:100FF00093E737007390573031A8832784FE93E737
:1010000017007390573039A0832784FEF19B7390AB
:10101000573001000100325445618280011122CE17
:1010200000102326A4FE8327C4FEF5177147636DC5
:10103000F70013972700B727012093878756BA97A1
:101040009C438287854719A0010081473E857244F1
:1010500005618280797106D622D40018232EA4FC63
:10106000232CB4FC232AC4FC232604FE8327C4FDBE
:1010700099E3FD57A5A8032784FDFD4763E6E7062E
:10108000832784FD13972700B72701209387C75D27
:10109000BA979C438287832744FD99C3FD34A9A056
:1010A000093699A0832744FD99C3013E35A815361A
:1010B00025A8832744FD99C30D3E3DA0A1362DA050
:1010C000832744FD99C3A13E05A0853E31A883270F
:1010D00044FD91C7832784FD3E85B53E29A0832723
:1010E00084FD3E85793E01008327C4FE3E85B250D3
:1010F000225445618280797122D60018232EA4FCE7
:10110000232CB4FC232AC4FC8327C4FD2326F4FE2D
:10111000032784FDAD4763C2E702832744FD91CFD7
:101120000327C4FE832784FD9387070E8A07BA9797
:10113000032744FD98C7814711A0FD573E853254CF
:1011400045618280397106DE22DC80002326A4FC02
:101150008327C4FC2322F4FE832744FEDC43639DE3
:101160000710FD5773B04730FD5773B04734F3276E
:1011700010302320F4FE032704FE8967F98F99E7D6
:10118000032704FEB7070400F98F99C7FD5773B012
:101190003730FD5773B02730032704FEB70704002C
:1011A000F98F81C7FD5773B00718232604FEB9A035
:1011B000832644FE0327C4FEBA878607BA978E07A4
:1011C000B69723A80708832644FE0327C4FEBA87E0
:1011D0008607BA978E07B69723AA0708832644FE88
:1011E0000327C4FEBA878607BA978E07B69723AC43
:1011F00007088327C4FE85072326F4FE0327C4FEC1
:10120000FD47E3D7E7FA232404FE1DA0032744FE8D
:10121000832784FE9387070E8A07BA973717012022
:101220001307E7CA98C7832784FE85072324F4FEA3
:10123000032784FEAD47E3DBE7FCB7170120938566
:1012400007E001450D3BF3271030232EF4FC032764
:10125000C4FDC16793878702F98F99CBF3270030CC
:10126000232EF4FC0327C4FD8967D98F73900730C0
:10127000832744FE0547D8C30100F2506254216120
:101280008280797106D622D40018232EA4FC232C48
:10129000B4FC232AC4FC2328D4FC232604FE832781
:1012A000C4FD2324F4FE032584FD8D3BAA8799E326
:1012B000D55739A2832744FD85CF832684FE032793
:1012C00084FDBA878607BA978E07B697032744FD31
:1012D00023A8E708832684FE032784FDBA878607B0
:1012E000BA978E07B697032704FD23ACE708F9A049
:1012F000832784FDF51771476362F70C1397270066
:10130000B72701209387C765BA979C4382878326B6
:1013100084FE032784FDBA878607BA978E07B6979F
:10132000371701201307E7CD23A8E708832684FE9B
:10133000032784FDBA878607BA978E07B6970327D7
:1013400004FD23AAE7089DA8832684FE032784FDC5
:10135000BA878607BA978E07B69737170120130703
:1013600067D423A8E708832684FE032784FDBA8771
:101370008607BA978E07B697032704FD23AAE708C6
:1013800035A8832684FE032784FDBA878607BA978B
:101390008E07B69737170120130767CC23A8E708F5
:1013A000832684FE032784FDBA878607BA978E07B3
:1013B000B697032704FD23AAE70801008327C4FE8C
:1013C0003E85B250225445618280011106CE22CC66
:1013D00000102326A4FE2324B4FE832784FE0546A2
:1013E000BE850325C4FEBD31AA873E85F240624416
:1013F00005618280011106CE22CC00102326A4FEB6
:101400002324B4FE832784FE0146BE850325C4FE43
:101410009131AA873E85F2406244056182807971EC
:1014200006D622D40018232EA4FC232CB4FC232A95
:10143000C4FC8327C4FD2326F4FE832784FD9DEB93
:10144000832744FD91EBB7170120938507E003251F
:1014500044FD1536814705A0032744FD8547631BDE
:10146000F7008327C4FEA107BE85032544FD21366E
:10147000814711A0FD573E85B250225445618280BC
:10148000797106D622D40018232EA4FC232CB4FC98
:101490008327C4FD2326F4FE832784FD89EBB71739
:1014A0000120938507E00145F934814711A0FD57DC
:1014B0003E85B250225445618280011122CE001037
:1014C0002326A4FE2324B4FE2322C4FE81473E85A6
:1014D000724405618280397122DE80002326A4FCDB
:1014E00001438143232464FE232674FE732500B840
:1014F0002322A4FE732500B02320A4FE732500B888
:10150000232EA4FC832844FE0325C4FD6395A80272
:10151000032544FEAA85014613980500814703264A
:1015200004FEB286014733E6D7002324C4FEB36726
:10153000E8002326F4FE832784FE0328C4FE3E85AC
:10154000C285725421618280797106D622D44AD232
:101550004ED00018232EA4FC8327C4FD81E7014947
:10156000814921A80325C4FDEFF04FD82326A4FE0E
:101570008327C4FE3E89FD87BE89CA874E883E8583
:10158000C285B25022541259825945618280397104
:1015900006DE22DC80002326A4FC81470148232CA0
:1015A000F4FC232E04FD0325C4FCEFF0CFD6232644
:1015B000A4FE8327C4FC2324F4FE8327C4FE8DC726
:1015C0008327C4FE83A7C7132322F4FE832744FE88
:1015D00081CF832744FE9C43984F930784FD3E862A
:1015E0008545032544FE0297832784FD0328C4FD17
:1015F0003E85C285F250625421618280797106D69F
:1016000022D426D20018232EA4FC2328B4FC232A9B
:10161000C4FCFD572326F4FE0325C4FDEFF0AFCF35
:101620002324A4FE8327C4FD2322F4FE832784FE03
:101630008DCF832784FE83A7C7132320F4FE83273F
:1016400004FE85C7832704FE9C43C44F0325C4FDC5
:10165000EFF08FC7AA87032604FD832644FDBE85CD
:10166000032504FE82942326A4FE8327C4FE3E8520
:10167000B2502254925445618280011122CE001052
:101680002326A4FEB70700809387C7493E8572448E
:1016900005618280011122CE00102326A4FE9D4701
:1016A0003E85724405618280011122CE00102326FE
:1016B000A4FEB70700809387C7493E857244056141
:1016C0008280011122CE00102326A4FE8D473E8584
:1016D000724405618280797106D622D40018232EC7
:1016E000A4FC232CB4FCFD572326F4FE0325C4FDE3
:1016F000EFF06FC22324A4FE8327C4FD2322F4FE4F
:10170000832784FE9DC7832784FE83A7C70D2320DC
:10171000F4FE832704FE91CF832704FE9C43984F59
:10172000930784FD3E868D45032504FE02972326FC
:10173000A4FE8327C4FE3E85B250225445618280B8
:10174000797106D622D40018232EA4FC232CB4FCD5
:10175000FD572326F4FE0325C4FDEFF0CFBB232461
:10176000A4FE8327C4FD2322F4FE832784FE9DC7A5
:10177000832784FE83A7C70D2320F4FE832704FE5E
:1017800091CF832704FE9C43984F930784FD3E86A8
:101790008945032504FE02972326A4FE8327C4FE61
:1017A0003E85B250225445618280797106D622D49A
:1017B0000018232EA4FC232CB4FC232604FE0325AE
:1017C000C4FDEFF04FB52324A4FE8327C4FD2322DC
:1017D000F4FE832784FE9DC7832784FE83A7C70D5D
:1017E0002320F4FE832704FE91CF832704FE9C432D
:1017F000984F930784FD3E869145032504FE02978A
:101800002326A4FE8327C4FE3E85B25022544561A0
:101810008280011106CE22CC00102326A4FE0325CF
:10182000C4FEEFF04FAFAA873E85F24062440561E7
:101830008280797106D622D40018232EA4FC232C92
:10184000B4FC232AC4FC0325C4FDEFF0CFAC23264F
:10185000A4FE8327C4FE99CB032644FD832584FD83
:101860000325C4FEEFF03F89AA8711A0FD573E85EE
:10187000B250225445618280011122CE00102326ED
:10188000A4FE2324B4FE832784FE83D707008D8B18
:1018900099C3914711A089473E85724405618280B2
:1018A000797122D60018232EA4FCF32710342326A6
:1018B000F4FE8327C4FE3E853254456182800111C7
:1018C00022CE00102326A4FE2324B4FE832784FE08
:1018D0007390173481473E857244056182800111FF
:1018E00022CE00102326A4FEB7070080938747016D
:1018F0003E85724405618280011122CE00102326AC
:10190000A4FEB70700809387074D3E8572440561AA
:101910008280011122CE00102326A4FE81473E853D
:10192000724405618280411122C6000893870182BA
:101930003E85324441018280397106DE22DC80001E
:101940002326A4FC0325C4FC593F2326A4FE03251B
:10195000C4FCC1372324A4FE0325C4FC713F232209
:10196000A4FED1372320A4FE832704FE9C438325B5
:1019700084FE032544FE8297232EA4FC0325C4FE87
:10198000EF005004AA873E878327C4FD93F7F7032F
:101990008507B357F7023E85F25062542161828079
:1019A000011106CE22CC00102326A4FE2324B4FE6F
:1019B0000325C4FE5137AA873E85F2406244056183
:1019C0008280011122CE00102326A4FEB7070080DA
:1019D000938707003E85724405618280011122CE03
:1019E00000102326A4FEB70700809387074D3E858D
:1019F000724405618280011122CE00102326A4FECC
:101A000091473E85724405618280411122C60008DB
:101A1000938701823E85324441018280397106DE1E
:101A200022DC80002326A4FC0325C4FC593F232686
:101A3000A4FE0325C4FCC1372324A4FE0325C4FC53
:101A4000713F2322A4FED1372320A4FE832704FE66
:101A50009C43832584FE032544FE8297232EA4FC09
:101A60000325C4FEEF000076AA873E85F25062543B
:101A700021618280011106CE22CC00102326A4FE13
:101A80002324B4FE0325C4FE513FAA873E85F240BD
:101A9000624405618280011122CE00102326A4FE3B
:101AA000B70700809387873F3E8572440561828037
:101AB000011122CE00102326A4FEB70700809387D1
:101AC000C7403E85724405618280011122CE00101C
:101AD0002326A4FEB70700809387074D3E857244F6
:101AE00005618280011122CE00102326A4FEB14799
:101AF0003E85724405618280411122C60008B70705
:101B000000809387074D3E85324441018280411118
:101B100022C60008A1473E8532444101828041111E
:101B200022C60008B727F400938707403E85324459
:101B300041018280411122C60008B78700103E850E
:101B4000324441018280411122C6000893870182FC
:101B50003E85324441018280011122CE00102326AD
:101B6000A4FE2324B4FE832784FE98478327C4FE63
:101B700063E9E700832784FED8478327C4FE6374A4
:101B8000F700FD5729A8832784FE98438327C4FEC6
:101B90003307F702832784FEDC43B357F7023E8501
:101BA000724405618280011106CE22CC0010853F6F
:101BB0002326A4FE8327C4FE91C7B70700801385A0
:101BC000074231200100F240624405618280397190
:101BD00006DE22DC80002326A4FC8327C4FC3E858D
:101BE000C13D2326A4FE253F2324A4FE0D37232236
:101BF000A4FE89372320A4FE032704FE832744FE86
:101C0000BA97232EF4FC8327C4FCDC4389CB8327BB
:101C1000C4FCD8438327C4FC9C473E850297832796
:101C2000C4FD9843C167F98F91EB8327C4FD9843A6
:101C3000C177FD177D8F8327C4FD98C38327C4FE1A
:101C400091CB8327C4FD9843B70702005D8F83279C
:101C5000C4FD98C38327C4FC9C43D8438327C4FC9A
:101C6000832584FE3E8502978327C4FCDC4789CB0D
:101C70008327C4FCD8478327C4FC9C4B3E8502972E
:101C80000100F2506254216182801D7186CEA2CC87
:101C900080102326A4FA0325C4FA193D2326A4FEA6
:101CA0000325C4FACD3B2324A4FE0325C4FA8535BD
:101CB0002322A4FE0325C4FA81352320A4FE032594
:101CC000C4FA0D35232EA4FC0325C4FAFD3B232CB6
:101CD000A4FC953D232AA4FC832744FD9C43832533
:101CE00044FE032504FE82972328A4FC832744FD99
:101CF0009C438325C4FD032584FD82972326A4FCF1
:101D0000032704FDC1677D8FC1676377F700032553
:101D100084FE4D29AA87D9A8032704FDB70702002E
:101D20007D8FB70702006365F7008327C4FE19A003
:101D3000832784FE3E8579212324A4FC032704FD08
:101D4000B70704007D8FB70704006365F70083279A
:101D500084FC69A8832704FD9D8B85072322F4FC5E
:101D6000832704FD93F7073F918385078607232088
:101D7000F4FC032704FD8567938707C07D8F9307D5
:101D8000F03F63E4E700FD5795A0032704FD856756
:101D9000938707C0F98FA9830547B317F700232E50
:101DA000F4FA032784FC832744FC3347F702832794
:101DB00004FC3307F7028327C4FBB347F702232C45
:101DC000F4FA8327C4FC13F707109307F00F63F5A9
:101DD000E700832784FB19A8032784FB8327C4FC1F
:101DE00093F7F70385078607B357F7023E85F6405A
:101DF000664425618280397106DE22DC800023265C
:101E0000A4FC2324B4FCFD572326F4FEB70700806E
:101E100093C7F7FF2324F4FE930730042322F4FE34
:101E2000A5A0832744FE13975700B7270120938767
:101E30000773BA97BE850325C4FC393B2320A4FE53
:101E4000032704FEFD57630CF702032704FE8327D4
:101E500084FC1D8F9357F7413D8FB307F740232E26
:101E6000F4FC0327C4FD832784FE635AF70083270D
:101E700044FE2326F4FE8327C4FD2324F4FE832797
:101E800044FEFD172322F4FE832744FEE3DB07F81C
:101E90008327C4FE3E85F250625421618280011185
:101EA00022CE00102326A4FE2324B4FE2322C4FE47
:101EB0008327C4FE9C4313F787FF8327C4FE98C380
:101EC0008327C4FE9843832744FE9C4B9D8B5D8FE4
:101ED0008327C4FE98C38327C4FE9C4313F7F7C02F
:101EE0008327C4FE98C38327C4FE9843832744FEF8
:101EF000DC4B920793F7073F5D8F8327C4FE98C39F
:101F00008327C4FE9843FD779387F73F7D8F832710
:101F1000C4FE98C38327C4FE9843832744FE9C4F86
:101F20009396A7008567938707C0F58F5D8F8327FA
:101F3000C4FE98C3832744FEDC4F63DB070283277C
:101F400084FE9C4313E70710832784FE98C38327EE
:101F500084FE9C4313F707FC832784FE98C38327E2
:101F600084FE9C4313E71700832784FE98C32DA8A3
:101F7000832784FE9C4313F7F7EF832784FE98C3DF
:101F8000832784FE9C4313F707FC832784FE98C3B2
:101F9000832784FE9843832744FEDC4F93F7F7039F
:101FA0005D8F832784FE98C38327C4FE9843B707B9
:101FB000FCFFFD177D8F8327C4FE98C30100832794
:101FC000C4FE9C43E3DD07FE01007244056182808C
:101FD0005D7186C6A2C48008232EA4FA232CB4FA0D
:101FE0000325C4FBF1342326A4FE0325C4FB65347A
:101FF0002324A4FE0325C4FB193E2322A4FE0325AB
:10200000C4FBCD342320A4FE3536232EA4FC0327A5
:10201000C4FD832744FEBA97232CF4FC0327C4FD98
:10202000832704FEBA97232AF4FC832784FD984370
:10203000C167F98F91CB832784FD9843C177FD1742
:102040007D8F832784FD98C3832784FD9843B7073A
:102050000200F98F81C78327C4FE19A0832784FE5D
:102060003E858D222328A4FC032704FDBA8786071A
:10207000BA9713D7F7410D8BBA9789873E87832785
:1020800084FB63CBE702032704FDBA878A07BA976C
:1020900013D7F7410D8BBA9789873E87832784FB37
:1020A000634CF700832784FD9843B70704005D8FD6
:1020B000832784FD98C3B1A0832584FB032504FDF9
:1020C0001D3B2326A4FC0327C4FCFD576302F70233
:1020D0008327C4FC13975700B72701209387077302
:1020E000BA973E86832544FD032584FD4D3B11A808
:1020F000832784FD9843B70704005D8F832784FD01
:1021000098C3832784FD9843C1675D8F832784FD2F
:1021100098C30325C4FB953EAA873E85B640264456
:1021200061618280011106CE22CC0010EFF03F9F4A
:102130002326A4FE8325C4FEB7070080138507422B
:102140006D200100F240624405618280411122C687
:102150000008B78700103E853244410182807971C2
:1021600006D622D40018232EA4FC232CB4FCF93F5D
:10217000AA872326F4FE032784FD8327C4FEBA978B
:102180009C433E85B250225445618280797106D6C7
:1021900022D40018232EA4FC232CB4FC232AC4FC34
:1021A0007537AA872326F4FE032784FD8327C4FE00
:1021B000BA973E87832744FD1CC33E85B250225404
:1021C00045618280011106CE22CC00102326A4FE98
:1021D0008327C4FE9C439C430325C4FE8297AA87A1
:1021E0003E85F240624405618280797106D622D430
:1021F0000018232EA4FC232CB4FC8327C4FDDC434D
:1022000089CB8327C4FDD8438327C4FD9C473E85E3
:1022100002978327C4FD9C43DC43832584FD03256B
:10222000C4FD82972326A4FE8327C4FDDC4789CB07
:102230008327C4FDD8478327C4FD9C4B3E85029766
:102240008327C4FE3E85B25022544561828001112D
:1022500022CE00102326A4FE0100FDBF011122CED4
:1022600000102326A4FE0327C4FEB707008093872F
:1022700007006317F700B727F4009387074025A8E6
:102280000327C4FEB7070080938747016317F70051
:10229000B7A74A049387072039A80327C4FEB707C6
:1022A0000080938787026317F700B757E801938789
:1022B000078011A081473E8572440561828001112B
:1022C00006CE22CC00102326A4FE0325C4FE7937B7
:1022D000AA873E85F240624405618280011106CEE4
:1022E00022CC00102326A4FE2324B4FE0325C4FE22
:1022F000F937AA873E85F240624405618280411128
:1023000022C600080100324441018280AA8581462C
:1023100001460145C1A8411122C406C69707000025
:10232000938707152A8499C381458922938701835E
:1023300088431C5591C382972285ED2A4111971736
:1023400000009387E7C922C417140000130444C98E
:102350001D8C26C206C60984BE8419E42244B240FC
:10236000924441016FD05FDF7D1493172400A6973C
:102370009C438297DDB7411197170000938787C56B
:1023800022C4171400001304E4C41D8C26C24AC0E2
:1023900006C6098481443E8963988402EFD0DFDB5E
:1023A00097170000938707C317140000130444C352
:1023B0001D8C098481443E89639F8400B24022447D
:1023C000924402494101828093972400CA979C431A
:1023D00085048297D1B793972400CA979C438504BC
:1023E0008297D9BF97E7FE5F9387870E9C432A8E1B
:1023F0009DE317E7FE5F1307E70D97E7FE5F23A94D
:10240000E70C17E5FEDF1305E5BFBA8709C51C41D8
:1024100023A0F18CBA87D8437D487D556347E804F3
:10242000630E0E0203A887086301080493182700AF
:10243000C29823A0C8000323081005463316E600FF
:102440003363C3002320681023A0D808894663178C
:10245000DE0083264810558E2322C81093061700ED
:102460000A07D4C3BA978CC701458280797152CCD0
:1024700056CA5AC85EC606D622D426D24AD04ECEF6
:1024800062C42A8B2E8A97EAFE5F938A6A04854B80
:1024900003A40A0011C84440832984081389F4FF67
:1024A0008A04A294635E0900B250225492540259E5
:1024B000F249624AD24A424BB24B224C4561828079
:1024C000630E0A00639509007D19F114E1BF9317AB
:1024D0002900CE9783A70708E39847FF5840DC40C0
:1024E0007D176318270323222401F9DF032C4400FE
:1024F0006388090083A6091033972B01F98E89EEB2
:102500008297584083A70A00E31487F9E30EF4FA90
:1025100041B723A20400D1BF93162900CE968C4266
:1025200083A64910758F01E75A858297D9BF2E85FA
:102530008297C1BF011106CE22CC00102326A4FE33
:062540000325C4FE29334F
:10254800F20601207A07012036080120E60801205A
:102558000000000000000000960901202C06012060
:102568004410012048100120481001204810012083
:102578004410012048100120481001204810012073
:102588004410012048100120481001204810012063
:10259800481001204410012044100120441001205B
:1025A800441001204410012044100120441001204F
:1025B800441001204410012044100120441001203F
:1025C800441001204410012044100120441001202F
:1025D8004410012096100120E8100120E810012085
:1025E800A4100120E8100120E8100120E8100120C3
:1025F800B2100120E8100120E8100120E8100120A5
:10260800C0100120E8100120E8100120E810012086
:10261800E8100120CE100120CE100120CE1001209C
:10262800CE100120CE100120CE100120CE100120A6
:10263800CE100120CE100120CE100120CE10012096
:10264800CE100120CE100120CE100120CE10012086
:10265800CE1001200E130120BC130120BC13012051
:10266800BC13012048130120BC130120BC13012016
:10267800BC13012082130120BC130120BC130120CC
:10268800BC130120BC1301208213012082130120F6
:10269800821301208213012082130120821301205A
:1026A800821301208213012082130120821301204A
:1026B800821301208213012082130120821301203A
:1026C800821301208213012044110120821201206B
:1026D800CA130120F41301201E14012080140120C4
:1026E800BA14012000000000D6140120481501206A
:1026F8008E150120FC1501207A1601209416012060
:10270800A8160120C2160120D61601204017012064
:10271800AA17012012180120321801207818012068
:10272800A0180120BE1801200100000020000000B0
:10273800001BB70000366E01010000001F000000FA
:10274800030000003F00000001000000200000001E
:1027580000366E01006CDC02030000001F00000060
:10276800020000003F00000001000000100000000F
:10277800808D5B00001BB700000000001F000000F8
:10278800030000003F0000000100000010000000EE
:10279800001BB70000366E01010000001F0000009A
:1027A800020000003F0000000100000010000000CF
:1027B80000366E01006CDC02030000001F00000000
:1027C800020000001F0000000100000008000000D7
:1027D800808D5B00001BB700000000001F00000098
:1027E800030000001F0000000100000008000000B6
:1027F800001BB70000366E01010000001F0000003A
:10280800020000001F000000010000000800000096
:1028180000366E01006CDC02030000001F0000009F
:10282800020000000F00000001000000040000008A
:10283800808D5B00001BB700000000001F00000037
:10284800030000000F000000010000000400000069
:10285800001BB70000366E01010000001F000000D9
:10286800020000000F00000001000000040000004A
:1028780000366E01006CDC02030000001F0000003F
:102888000200000007000000010000000200000034
:10289800808D5B00001BB700000000001F000000D7
:1028A800020000000F00000001000000020000000C
:1028B800001BB70000366E01010000001F00000079
:1028C800010000000F0000000100000002000000ED
:1028D80000366E01006CDC02030000001F000000DF
:1028E80001000000070000000200000001000000D5
:1028F800808D5B00001BB700000000001F00000077
:1029080001000000070000000200000001000000B4
:10291800001BB70000366E01010000001F00000018
:102928000100000003000000020000000100000098
:1029380000366E01006CDC02030000001F0000007E
:1029480003000000FFFFFFFF04000000010000007B
:10295800808D5B00001BB700000000001F00000016
:102968000300000000000000040000000100000057
:10297800001BB70000366E01010000001F000000B8
:1029880003000000FFFFFFFF04000000010000003B
:1029980000366E01006CDC02030000001F0000001E
:1029A80002000000FFFFFFFF06000000010000001A
:1029B800808D5B00AAC2A200000000002300000076
:1029C80001000000020000000600000001000000F5
:1029D800AAC2A200001BB7000000000017000000F8
:1029E80003000000FFFFFFFF0600000001000000D9
:1029F800001BB7000024F400010000002F000000B5
:102A080003000000FFFFFFFF0600000001000000B8
:102A18000024F40080A81201010000001700000043
:102A280002000000FFFFFFFF060000000100000099
:102A380080A812015585450102000000230000000E
:102A480002000000FFFFFFFF080000000100000077
:102A5800808D5B00001BB700000000001F00000015
:102A680003000000FFFFFFFF080000000100000056
:102A7800001BB70000366E01010000001F000000B7
:102A880002000000FFFFFFFF080000000100000037
:102A980000366E01006CDC02030000001F0000001D
:102AA80001000000FFFFFFFF0A0000000100000016
:102AB800808D5B00007C9200000000002700000071
:102AC80003000000FFFFFFFF0A00000001000000F4
:102AD800007C9200001BB7000000000013000000FB
:102AE80002000000FFFFFFFF0A00000001000000D5
:102AF800001BB70000F824010100000027000000B7
:102B080002000000FFFFFFFF0A00000001000000B4
:102B180000F8240100366E010100000013000000D7
:102B280001000000FFFFFFFF0A0000000100000095
:102B380000366E0100F04902030000002700000083
:102B480001000000FFFFFFFF0C0000000100000073
:102B5800808D5B0000127A00000000002F0000004A
:102B680003000000FFFFFFFF0C0000000100000051
:102B780000127A00001BB7000000000017000000D8
:102B880002000000FFFFFFFF0C0000000100000032
:102B9800001BB7000024F400010000002F00000013
:102BA80002000000FFFFFFFF0C0000000100000012
:102BB8000024F40000366E01010000001700000038
:102BC80001000000FFFFFFFF0C00000001000000F3
:102BD80000366E0180C3C901030000002F00000009
:102BE80001000000FFFFFFFF0C00000001000000D3
:102BF80080C3C9010048E801030000002F0000005D
:102C080001000000FFFFFFFF0E00000001000000B0
:102C1800808D5B00B6A1680000000000370000004E
:102C280003000000FFFFFFFF0E000000010000008E
:102C3800B7A16800001BB700000000001B000000DF
:102C480002000000FFFFFFFF0E000000010000006F
:102C5800001BB7006D43D1000100000037000000E1
:102C680002000000FFFFFFFF0E000000010000004F
:102C78006E43D10000366E01010000001B00000009
:102C880001000000FFFFFFFF0E0000000100000030
:102C980000366E01DB86A201030000003700000049
:102CA80001000000FFFFFFFF10000000010000000E
:102CB800808D5B00001BB700000000001F000000B3
:102CC80002000000FFFFFFFF1000000001000000ED
:102CD800001BB70000366E01010000001F00000055
:102CE80001000000FFFFFFFF1200000001000000CC
:102CF800808D5B00AAC2A200000000002300000033
:102D080002000000FFFFFFFF1200000001000000AA
:102D1800ABC2A200001BB7000000000011000000B9
:102D280001000000FFFFFFFF12000000010000008B
:102D3800001BB70055854501010000002300000075
:102D480001000000FFFFFFFF140000000100000069
:102D5800808D5B00007C92000000000027000000CE
:102D680002000000FFFFFFFF140000000100000048
:102D7800007C9200001BB700000000001300000058
:102D880001000000FFFFFFFF140000000100000029
:102D9800001BB70000F82401010000002700000014
:102DA80001000000FFFFFFFF160000000100000007
:102DB800808D5B00E82A8500000000002B000000E1
:102DC80002000000FFFFFFFF1600000001000000E6
:102DD800E92A8500001BB70000000000150000006C
:102DE80001000000FFFFFFFF1600000001000000C7
:102DF800001BB700D1550A01010000002B0000009C
:102E080001000000FFFFFFFF1800000001000000A4
:102E1800808D5B0000127A00000000002F00000087
:102E280002000000FFFFFFFF180000000100000083
:102E380000127A00001BB700000000001700000015
:102E480001000000FFFFFFFF180000000100000064
:102E5800001BB7000024F400010000002F00000050
:102E680001000000FFFFFFFF1A0000000100000042
:102E7800808D5B0027AE700000000000330000006A
:102E880002000000FFFFFFFF1A0000000100000021
:102E980028AE7000001BB7000000000019000000F9
:102EA80001000000FFFFFFFF1A0000000100000002
:102EB800001BB7006658E100010000003300000065
:102EC80001000000FFFFFFFF1C00000001000000E0
:102ED800808D5B00B6A1680000000000370000008C
:102EE80002000000FFFFFFFF1C00000001000000BF
:102EF800B7A16800001BB700000000001B0000001D
:102F080001000000FFFFFFFF1C000000010000009F
:102F1800001BB7006D43D10001000000370000001E
:102F280001000000FFFFFFFF1E000000010000007D
:102F3800808D5B0000A86100000000003B000000DD
:102F480002000000FFFFFFFF1E000000010000005C
:102F580000A86100001BB700000000001D00000071
:102F680001000000FFFFFFFF1E000000010000003D
:102F7800001BB7000050C300010000003B00000028
:102F880001000000FFFFFFFF20000000010000001B
:102F9800808D5B00001BB700000000001F000000D0
:102FA80001000000FFFFFFFFCE1B01208A1C01204B
:102FB800D01F0120C42F0120000000006C69626747
:082FC8006C6F73730000000040
:0C2FD00080010120A61B0120242101200B
:102FDC00C0040080000000000000000000000000A1
:102FEC0000000000C0040080000000000000000091
:102FFC000000000000000000C00400800000000081
:10300C0000000000000000000000000000000000B4
:10301C00D02601200000000000000000000000008D
:10302C000000000000000000000000000000000094
:10303C000000000000000000000000000000000084
:10304C000000000000000000000000000000000074
:10305C000000000000000000000000000000000064
:1033CC000000000000000000A804008000000000C5
:1033DC00000000000000000000000000B0040080AD
:1033EC0000000000000000000000000000000000D1
:1033FC00B42F0120000000000000000000000000BD
:10340C0000000000000000000000000000000000B0
:10341C0000000000000000000000000000000000A0
:10342C000000000000000000000000000000000090
:10343C000000000000000000000000000000000080
:10344C000000000000000000000000000000000070
:10345C000000000000000000000000000000000060
:10346C000000000000000000A4040080482501209A
:10347C0000000000F026012038190120A0190120BD
:10348C001C1A0120741A01205E2101208C210120BC
:0C349C00BE220120DC220120340400804C
:0400000520010000D6
:00000001FF
